:020000040802F0
:10000000000800201D0402081F0402081F04020843
:100010001F0402081F0402081F0402081F0402082C
:100020001F0402081F0402081F040208513A0308B3
:100030001F0402081F0402081F0402081F0402080C
:100040001F0402081F0402081F0402081F040208FC
:100050001F0402081F0402081F0402081F040208EC
:100060001F0402081F0402081F04020821E40208FA
:10007000C1E4020861E5020801E60208A1E60208FF
:1000800041E70208E1E702081F040208B13503084E
:10009000413603081F0402081F0402081F04020857
:1000A0001F0402081F0402081F0402081F0402089C
:1000B00081E202081F0402081F0402081F0402084C
:1000C0001F0402081F0402081F040208D1FB0208D3
:1000D0001F0402081F040208A1380308313903086D
:1000E0001F0402081F0402081F0402081F0402085C
:1000F0001F0402081F0402081F04020881E8020806
:100100001F040208E1E102081F0402081F0402089C
:100110001F0402081F0402081F0402081F0402082B
:1001200021E90208C1E9020861EA020801EB0208BC
:10013000A1EB02081F0402081F0402081F040208A2
:100140001F0402081F0402081F0402081F040208FB
:1001500041EC0208E1EC020881ED0208C139030814
:100160001F0402081F0402081F0402081F040208DB
:100170001F0402081F0402081F0402081F040208CB
:100180001F0402081F0402081F0402081F040208BB
:1001900071FC02081F0402081F0402081F04020861
:1001A0001F0402081F0402081F0402081F0402089B
:1001B0001F0402081F0402081F0402081F0402088B
:1001C0001F0402081F0402081F0402081F0402087B
:1001D0001F04020821EE02081F0402081F0402087F
:1001E0001F0402081F0402081F0402081F0402085B
:1001F0001F0402081F0402081F0402081F0402084B
:100200001F0402081F0402081F0402081F0402083A
:100210001F0402081F0402081F0402081F0402082A
:100220001F0402081F0402081F0402081F0402081A
:100230001F0402081F0402081F0402081F0402080A
:100240001F0402081F0402081F0402081F040208FA
:100250001F0402081F0402081F0402081F040208EA
:100260001F0402081F0402081F0402081F040208DA
:100270001F0402081F0402081F0402081F040208CA
:100280001F0402081F0402081F0402081F040208BA
:100290001F0402081F0402081F0402081F040208AA
:1002A0001F0402081F0402081F0402081F0402089A
:1002B0001F0402081F0402081F0402081F0402088A
:1002C0001F0402081F0402081F0402081F0402087A
:1002D0001F0402081F0402081F0402081F0402086A
:0402E000719203080C
:1003000072B6374880F30888364880F30988364843
:100310003649086040F20000CCF200004EF634711D
:10032000CEF200010860BFF34F8FBFF36F8F40F232
:100330000000C0F2F0004EF68851CEF200010860D5
:10034000BFF34F8FBFF36F8F4FF00000E1EE100A45
:100350004EF63C71CEF200010860062080F314884E
:10036000BFF36F8F0DF0ECFD0DF02AFE4FF055300E
:100370001F491B4A91423CBF41F8040BFAE71D4953
:10038000184A91423CBF41F8040BFAE71A491B4A4C
:100390001B4B9A423EBF51F8040B42F8040BF8E79E
:1003A00000201849184A91423CBF41F8040BFAE773
:1003B0000DF01EFE0DF00CFE144C154DAC4203DA90
:1003C00054F8041B8847F9E714F0E2FF114C124D72
:1003D000AC4203DA54F8041B8847F9E70DF000BE7D
:1003E00000080020001000200000020808ED00E0D6
:1003F000000000200008002070A80308000000246E
:100400009C0A0024A00A0024A05D0124E002020846
:10041000E4020208E4020208E402020870E700F0C5
:1004200000F8FEE72DE9F04F2DED108AC1F80CD051
:10043000D0F80CD0BDEC108ABDE8F08F002383F318
:1004400011882846A047002011F04AF8FEE70FF077
:100450008FFD00DFFEE7000008B52DED028BB0EE4A
:10046000408A00F057F8144B93F900300133F0EE56
:10047000408A0FD0B4EE488AF1EE10FA0AD6B0EEF8
:10048000480A00F0C9FAF7EE007AB4EEE70AF1EE96
:1004900010FA04DCB0EE680ABDEC028B08BD00F077
:1004A000C9FABDEC028B034621221A600348BDE85D
:1004B000084000F0B9BA00BF00000024809F030884
:1004C00000F02EB908B52DED028BB0EE408A00F099
:1004D000CBF90E4B93F9003001330BD0B4EE488AC0
:1004E000F1EE10FA06D6DFED0A8AB4EEE88AF1EEF4
:1004F00010FA02D4BDEC028B08BD00F09BFA88EE26
:10050000A80ABDEC028B2123036008BD0000002473
:100510000000000038B510EE105A25F00044B4F188
:100520007E5F2DED048B00F085807ADCB4F17C5F7A
:100530000FDAB4F1485F80F29C80DFED697A70EEEB
:10054000277AB7EE007AF4EEC77AF1EE10FA00F3EC
:100550008D8000F061FAF7EE007A37EEC00AB6EE51
:10056000008A20EE088A9FED5F7ADFED5F6A9FEDDB
:100570005F6A9FED5F5ADFED5F5ADFED5F8AE8EE5D
:10058000076A9FED5E7AA8EE067A9FED5D6AA6EE99
:10059000885AA7EE086A9FED5B7ADFED5B6AE5EEAD
:1005A000085AA6EE087AE5EE886AE7EE087AE6EEE3
:1005B000888AB0EE480AB0EE679A00F055F9534BBE
:1005C0009C4268EE888A42DC10EE103A23F47F6386
:1005D00023F00F0306EE903AA6EEE68A70EE267A36
:1005E00088EE895AC8EE274A9FED497ADFED497AAD
:1005F000B0EE006AA4EEC67A30EE000AF0EE675A5A
:10060000E6EEC65A90EE057A37EE657A37EEC77A8F
:10061000002D0ADCBDEC048BB1EE477AB0EE470A40
:1006200038BD70EE407A87EEA77ABDEC048BB0EE51
:10063000470A38BD9FED367ADFED377A20EE077A2C
:10064000BDEC048BA0EE277AB0EE470A38BD88EEE9
:10065000896A9FED327ADFED307AA0EE060AF0EE7D
:10066000006AA0EE267A37EEC77AD1E7B0EE407A7C
:10067000DBE760EE007A9FED1B7ADFED1B6A9FEDF2
:100680001C6ADFED1A5A9FED1B5AE7EE876ABDEC34
:10069000048BA6EEA76A9FED197ADFED196AA7EE23
:1006A000A57AA6EE275AE7EE276ADFED175A9FEDE7
:1006B000156A9FED117AE5EE275AA6EEA76AA5EE18
:1006C000A77AF7EE006AE6EE276A67EE277AB0EEC1
:1006D000407A87EEA66AA0EE067AB0EE470A38BDE9
:1006E000CAF2497108EF1138047F4F3A2EC69D3D7A
:1006F000461124BDA80A4E3EABAA2A3E613330BF44
:100700002D57014039D119C090B0A6BE9999793FB3
:100710002EBD3BB3DB0F493FDB0FC93F2EBD3B3343
:1007200010B582B0CDED010A019B23F00042B2F179
:10073000FF4FF0EE407A30DC10EE100A20F000415E
:10074000B1F1FF4F29DCB3F17E5F40D09C1704F07C
:10075000020444EAD07431B372B3B2F1FF4F3ED019
:10076000B1F1FF4F28D08A1AB2F1F45F4FEAE2519B
:1007700032DA002B40DA3C313EDA9FED330A012CAD
:100780004CD0022C41D064B19FED307ADFED307A4D
:1007900030EE070A30EE670A03E09DED017A37EE8E
:1007A000270A02B010BD022C0ED09FED2A0A032C9E
:1007B00000FE270A02B010BD9FED270ADFED277A61
:1007C000002820FE270AECE79FED210AE9E702B0A6
:1007D000BDE8104000F04CB89FED1F0ACFE7B1F123
:1007E000FF4F04F1FF3420D0022C26D81C4B03EB22
:1007F000840494ED030AD4E79DED017A87EE870A1D
:1008000000F00AF900F034F8B9E79FED107ADFED57
:10081000107A30EE070A37EEC00AC2E710EE103A3F
:1008200003F1004300EE103ABBE7022C08D80C4B52
:1008300003EB840494ED000AB3E79FED030AB0E7ED
:100840009FED080AADE700BF000000002EBDBB33DE
:10085000DB0F4940DB0F49C0DB0FC93FDB0FC9BFCE
:10086000C0930308DB0F493FB1EEC00A704700BFD9
:1008700038B510EE105A25F00044B4F1A14FF0EE57
:10088000407A0ADBB4F1FF4F57DCDFED517A9FED80
:10089000510A002D37FE800A38BD4F4B9C425BDC6D
:1008A000B4F1445F4CDB4FF0FF3267EEA76ADFED37
:1008B0004B4ADFED4B5A9FED4B5A9FED4B4A26EECC
:1008C000A67AB0EE666AE7EE245A531CDFED474A7B
:1008D000DFED476AA5EE875AE7EE246ADFED455A59
:1008E000DFED454AE6EE875AA5EE074A9FED435AEB
:1008F000DFED436AA5EE875AE4EE074ADFED415A81
:10090000E4EE876AE5EE075A66EE866A25EE877A98
:1009100037D03D4B03EB820376EE876A93ED000AF6
:1009200093ED047A96EEA70A002D70EE677A37EE03
:10093000670AB1DAB1EE400A38BD30EE000A38BDC0
:100940009FED327A30EE077AF7EE006AB4EEE67A7F
:10095000F1EE10FAA7DD38BD00F05EF82C4B9C429A
:1009600016DCA3F5D0039C4227DCF0EE007ABFEE44
:10097000007AA0EE277A002230EE270AC7EE007A2E
:1009800093E776EE876AE6EEE77AB0EE670A38BD5F
:10099000204B9C420BDCF7EE087AB7EE007AA0EE13
:1009A000277A022230EE670AC0EE077A7DE7BFEEB3
:1009B000007AC7EE007A032277E7F7EE007A30EE8E
:1009C000677A30EE270A0122C7EE007A6DE700BF92
:1009D000DB0FC93FDB0FC9BFFFFFDF3ED769853C97
:1009E00059DA4B3D356B883D6E2EBA3D21A215BDBF
:1009F0006BF16EBD95879DBD2549123E388EE3BDD6
:100A0000ABAAAA3ECDCC4CBED8930308CAF249711A
:100A1000FFFF973FFFFF1B4010EE103A23F000430B
:100A200000EE103A704700BF9FED010A704700BF0B
:100A30000000C07F014B1868704700BF0800002409
:100A400008B5062000F0BEF9012014F089FC00BFB3
:100A5000032A70B515D940EA010C1CF0030F0446B7
:100A60000B4621D1194620460E680568B54204F1AF
:100A7000040403F1040317D1043A032A204619465B
:100A8000F0D8541EA2B100F1FF3C013901E0C318B7
:100A90000CD01CF801EF11F8012F9645A4EB0C03C4
:100AA000F5D0AEEB020070BD541EECE7184670BDE9
:100AB000104670BD844641EA000313F003036DD174
:100AC000403A41D351F8043B40F8043B51F8043B11
:100AD00040F8043B51F8043B40F8043B51F8043B18
:100AE00040F8043B51F8043B40F8043B51F8043B08
:100AF00040F8043B51F8043B40F8043B51F8043BF8
:100B000040F8043B51F8043B40F8043B51F8043BE7
:100B100040F8043B51F8043B40F8043B51F8043BD7
:100B200040F8043B51F8043B40F8043B51F8043BC7
:100B300040F8043B51F8043B40F8043B51F8043BB7
:100B400040F8043B403ABDD2303211D351F8043B57
:100B500040F8043B51F8043B40F8043B51F8043B97
:100B600040F8043B51F8043B40F8043B103AEDD206
:100B70000C3205D351F8043B40F8043B043AF9D257
:100B8000043208D0D2071CBF11F8013B00F8013B2A
:100B900001D30B8803806046704700BF082A13D337
:100BA0008B078DD010F003038AD0C3F10403D21A4F
:100BB000DB071CBF11F8013B00F8013B80D331F883
:100BC000023B20F8023B7BE7043AD9D3013A11F803
:100BD000013B00F8013BF9D20B7803704B7843706E
:100BE0008B78837060467047830730B548D0541EB9
:100BF000002A3FD0CAB2034601E0013C3AD303F8D1
:100C0000012B9D07F9D1032C2DD9CDB245EA05253D
:100C10000F2C45EA054536D9A4F1100222F00F0C3D
:100C200003F1200EE6444FEA121C03F1100242E9E0
:100C3000045542E9025510327245F8D10CF1010217
:100C400014F00C0F03EB021204F00F0C13D0ACF1F4
:100C5000040323F003030433134442F8045B934278
:100C6000FBD10CF003042CB1CAB21C4403F8012BD5
:100C70009C42FBD130BD64461346002CF4D1F9E709
:100C800003461446BFE71A46A446E0E738B5D0F855
:100C9000DC420CB1002038BD8021054603F0FAFE8D
:100CA0000246C5F8DC0230B1031F7C3243F8044F22
:100CB0009342FBD1EEE74FF0FF3038BD1F29F8B566
:100CC000054609D8D0F8DC620C4617464EB156F8F6
:100CD000240046F82470F8BD162303604FF0FF305F
:100CE000F8BD802103F0D6FE0646C5F8DC0240B10F
:100CF000031F00F17C05002143F8041F9D42FBD136
:100D0000E5E74FF0FF30F8BD1F2938B5054621D87B
:100D1000D0F8DC220C466AB152F8213053B1012BD5
:100D200016D0591C10D00025204642F82450984770
:100D3000284638BD284600F003F9224601462846D9
:100D4000BDE8384000F0E6B816230360012038BD46
:100D5000002038BD162303604FF0FF3038BD00BFC0
:100D60001F292CD8D0F8DC2238B50C46054682B1B4
:100D700052F8243002EB84024BB1591C1AD0012BDB
:100D800016D00025204615609847284638BD01201A
:100D900038BD802103F07EFE0246C5F8DC0258B162
:100DA000031F00217C3043F8041F9842FBD1DFE78A
:100DB000032038BD022038BD4FF0FF3038BD4FF062
:100DC000FF30704738B5154B1F281D6820D8D5F85F
:100DD000DC22044662B152F820304BB1012B15D011
:100DE000591C0FD0002542F820509847284638BD9E
:100DF000284600F0A5F8224601462846BDE83840BE
:100E000000F088B816232B60012038BD002038BDC3
:100E100016232B604FF0FF3038BD00BF08000024C0
:100E2000134B1F2870B51E6809D80D46D6F8DC1282
:100E3000044649B151F8240041F8245070BD1623EE
:100E400033604FF0FF3070BD8021304603F022FE4A
:100E50000146C6F8DC0240B1031F00F17C0C002201
:100E600043F8042F6345FBD1E4E74FF0FF3070BD3A
:100E70000800002438B50C4B1D68D5F8DC420CB1D5
:100E8000002038BD8021284603F004FEC5F8DC02AE
:100E900038B1031F00F17C0243F8044F9342FBD1A9
:100EA000EEE74FF0FF3038BD0800002438B5184B8E
:100EB0001F281D6828D8D5F8DC22044682B152F8D4
:100EC000243002EB84024BB1591C1BD0012B17D0EC
:100ED0000025204615609847284638BD012038BDBA
:100EE0008021284603F0D6FD0246C5F8DC0258B141
:100EF000031F00217C3043F8041F8342FBD1DEE74F
:100F0000032038BD022038BD4FF0FF3038BD00BF90
:100F10000800002470B50C46084D03460026204604
:100F200011461C462E6014F023FA431C00D070BDFD
:100F30002B68002BFBD0236070BD00BFD40A0024B7
:100F400014F01EBA08B410B5002A9DB0044633DB75
:100F50004FF40273ADF814300291069120AB17D014
:100F6000013A4FF6FF7104920792ADF816101F9ADE
:100F7000019302A900F098FB421C01DA8B23236045
:100F8000029B00221A701DB0BDE8104001B07047EE
:100F90004FF6FF7104920792ADF816101F9A019355
:100FA00002A900F081FB431C01DA8B2323601DB0F2
:100FB000BDE8104001B070478B2303604FF0FF3055
:100FC000F5E700BF0CB410B51F4B00291C689CB09E
:100FD00035DB4FF40273ADF81430029006901FAB6E
:100FE00018D001394FF6FF7204910791ADF8162021
:100FF00002A91E9A0193204600F056FB421C01DA1A
:101000008B232360029B00221A701CB0BDE81040A5
:1010100002B070474FF6FF7204910791ADF81620A9
:1010200002A91E9A0193204600F03EFB431C01DA00
:101030008B2323601CB0BDE8104002B070478B23A7
:1010400023604FF0FF30F5E7080000240EB410B520
:101050009FB021AC4FF4017154F8042B0192ADF80C
:101060001C100490089000F06BFA059009900B4852
:101070000B490C9100234FF6FF7C10931593019AB6
:101080000068ADF81EC0234604A9039401F012FDC8
:101090001FB0BDE8104003B0704700BF0800002437
:1010A000211102080CB430B59FB022AC4FF401738B
:1010B00054F8042B019205460846ADF81C30049103
:1010C000089100F03DFA0C490C91034605930993F1
:1010D0004FF6FF71002310931593ADF81E10019A7F
:1010E00003942846234604A901F0E4FC1FB0BDE8A0
:1010F000304002B0704700BF2111020810B50C4605
:10110000B1F90E1014F0CCF8002803DB236D034472
:10111000236510BDA38923F48053A38110BD00BFB4
:10112000002070472DE9F0410C46B1F90C101F4624
:10113000CB05054616460BD421F48051A1813B46D0
:10114000B4F90E1032462846BDE8F04114F0B8B8A4
:10115000B4F90E100223002214F0AAF8B4F90C100E
:10116000EAE700BF10B50C46B1F90E1014F0A0F874
:10117000A389421C0EBF23F4805343F4805320659F
:10118000A38110BDB1F90E1014F0A2B811F0FF0147
:10119000034644D0820732D110B5046841EA012EDB
:1011A0004EEA0E4E8EEA0402A2F1013323EA020354
:1011B000A4F1013222EA0402134313F0803F0FD15D
:1011C00050F8044F84EA0E0CA4F10133ACF1013263
:1011D00023EA040322EA0C02134313F0803FEFD00A
:1011E000037823B936E010F8013F002B32D0994242
:1011F000F9D110BD8A4211D09A071846CCD01846B2
:1012000013F8012B002AF5D11046704799071846AC
:1012100007D0184601330278002AF7D170478207B9
:10122000F7D10268A2F1013323EA020313F0803FF1
:1012300008D150F8042FA2F1013323EA020313F07E
:10124000803FF6D00378002BE8D010F8013F002B48
:10125000FBD17047184610BD0000000000000000E0
:10126000A2EB0300704700BF02780B78012A28BF69
:101270009A42F5D16DE9044540EA0104CDE90267DF
:101280006FF0000C4FEA447212B380EA010414F0CC
:10129000070F6AD100F0070420F0070004F00305EF
:1012A00021F007014FEAC505F0E8042314F0040F0C
:1012B000F1E804670CFA05F462EA040266EA04063F
:1012C0000AD063EA0403624667EA0407664603E05D
:1012D000F0E80423F1E8046782FA4CF582EA060498
:1012E000A4FA8CF46CBB83FA4CF583EA0705A5FAE3
:1012F0008CF595B950E9022351E9026782FA4CF561
:1013000082EA0604A4FA8CF483FA4CF583EA070512
:10131000A5FA8CF52543DBD09CB92DBAB5FA85F436
:1013200024F0070427FA04F1DDE9026723FA04F345
:1013300003F0FF0001F0FF01FDE80445A0EB010010
:10134000704724BAB4FA84F424F0070426FA04F1AE
:10135000DDE9026722FA04F202F0FF0001F0FF016A
:10136000FDE80445A0EB0100704714F0030F3CD1E9
:1013700010F0030428D150F8082B51F8083B82FAEA
:101380004CF582EA0305A5FA8CF55DB950F8042CFA
:1013900051F8043C82FA4CF582EA0305A5FA8CF573
:1013A000002DE8D02DBAB5FA85F424F0070423FA0D
:1013B00004F122FA04F202F0FF0001F0FF01FDE85F
:1013C0000445A0EB010070474FEAC40420F003007D
:1013D00050F8082B21F0030151F8083B0CFA04F4F3
:1013E00062EA040263EA0403C9E710F003041AD0B6
:1013F000A1EB040120F00300E40750F8042B06D011
:101400000FD28B785FFAA2F4E41A06D12BB1CB7815
:101410005FFAB2F4E41A00D11BB920465DF8104B14
:10142000704701F1040150F8042BCC0721F00301AF
:1014300051F8043B48D824D222F07F4482FA4CF57C
:1014400094EA1325A5FA8CF50AD165B951F8043B45
:1014500084EA0204B4EB036F0ED150F8042BEBE7DF
:101460004FEA132355E035F07F454DD10878FDE86C
:101470000445C0F1000070474FEA126203F0FF0319
:1014800047E002EA1C4482FA4CF594EA1345A5FAB7
:101490008CF50AD165B951F8043B84EA0204B4EB37
:1014A000034F0CD150F8042BEBE74FEA134330E025
:1014B00015EA1C4528D10B884FEA124229E04FEA71
:1014C000124203EA1C4324E002F0FF0482FA4CF5C6
:1014D00094EA1365A5FA8CF50AD165B951F8043B75
:1014E00084EA0204B4EB032F09D150F8042BEBE794
:1014F0004FEA13630DE015F0FF0F05D10B684FEABB
:10150000122223F07F4304E04FF00000FDE8044581
:10151000704712BA1BBA82FA4CF482EA0304A4FAA6
:101520008CF5B5FA85F402FA04F203FA04F34FEAF3
:101530001260FDE80445A0EB136070470000000056
:1015400090F800F06DE9024520F007016FF0000C03
:1015500010F0070491F820F040F049804FF00004AB
:101560006FF00700D1E9002391F840F000F1080086
:1015700082FA4CF2A4FA8CF283FA4CF3A2FA8CF3BE
:101580004BBBD1E9022382FA4CF200F10800A4FA25
:101590008CF283FA4CF3A2FA8CF3E3B9D1E9042379
:1015A00082FA4CF200F10800A4FA8CF283FA4CF3B0
:1015B000A2FA8CF37BB9D1E9062301F1200182FA6A
:1015C0004CF200F10800A4FA8CF283FA4CF3A2FA70
:1015D0008CF3002BC6D0002A04BF04301A4612BA7E
:1015E000B2FA82F2FDE8024500EBD2007047D1E981
:1015F000002304F00305C4F100004FEAC50514F010
:10160000040F91F840F00CFA05F562EA05021CBFE0
:1016100063EA050362464FF00004A9E730B540EAEB
:101620000104A30701D1032A0FD8844601F1FF3E2C
:1016300007E01EF8011F03F8011B541EC1B19C46B0
:1016400022466346002AF4D130BD0B468446194633
:1016500053F8045BA5F1013424EA050414F0803F3B
:10166000E4D1043A032A4CF8045B1946EFD8DDE7CD
:101670006244002CE8D003F8011B9342FBD130BD3B
:1016800071B138B503460C46002501E0431C054600
:1016900021461846FFF77AFD0028F7D1284638BDC5
:1016A000FFF774BD000000002DE9F04F2DED068B13
:1016B000B9B08A4690460893834603F0E3F903687D
:1016C0000F931846FFF73CFFBAF80C300E9018063F
:1016D00004D5DAF81030002B00F0AD8600239FED22
:1016E0006C8B9FED6D9BCDE91C3328AA0C931B924C
:1016F00091460D9310930593574698F80030002BB0
:1017000000F05981444604E014F8013F002B00F03A
:101710008980252BF8D1B4EB080540F08780237829
:10172000002B00F048814FF0000300228DF84F306D
:101730004FF0FF316378049104F1010810460692DE
:10174000924608F10108A3F12001582900F2A8806F
:10175000DFE811F08702A600A6008202A600A6001C
:10176000A600A600A600A600A0017D02A600AB016F
:10177000B501A600AA0259005900590059005900A4
:101780005900590059005900A600A600A600A6005D
:10179000A600A600A600A600A600A6008F023C0197
:1017A000A6003C01A600A600A600A6007802A6009E
:1017B000A6006702A600A600A600A600A600560284
:1017C000A600A6003E02A600A600A600A600A6004F
:1017D000A600A600A600A600A6002E026D013C01F0
:1017E0003C013C01B0016D01A600A600E002A6008C
:1017F000CA026306AF02ED02A6000902A600600657
:10180000A600A600CF01A3F13001002418F8013B87
:1018100004EB840401EB4404A3F130010929F5D958
:10182000069490E7B4EB080500F0C5801D9B2B449F
:101830001D931C9B0133072BC9E900851C9305DC14
:1018400009F10809059B2B44059368E71BAA394653
:10185000584605F047FD50B90DF1A009F2E71BAA63
:101860003946584605F03EFD002800F09B80BA46F8
:10187000BAF80C3013F0400F059B18BF4FF0FF3340
:101880000593059839B0BDEC068BBDE8F08F00BF1D
:101890000000000000000000FFFFFFFFFFFFEF7FE0
:1018A0000A93002A41F07D800A9B002B00F0838080
:1018B0008DF878304FF000038DF84F3001230393FB
:1018C00007931EAC0023CDF808A004930B93029B52
:1018D00013F0020302D0039A02320392029A12F02A
:1018E0008402099205D1069A0399551A002D00F336
:1018F00081831D9A9DF84F1089B11C990DF14F00FD
:1019000001310132C9F8000007294FF001001D9292
:101910001C91C9F8040000F3A98309F1080983B1F7
:101920001C9B14A901330232C9F80010072B4FF099
:1019300002011D921C93C9F8041000F3A58309F15C
:101940000809099B802B00F09982049B07995E1A75
:10195000002E00F3CF82029BDD0500F11C82079B65
:10196000C9F804301A441C9BC9F800400133072B06
:101970001D921C9300F3328309F10809029B5B0757
:1019800005D5069B03995C1A002C00F38F83DDE9D3
:10199000053103988142ACBF5B181B180593002AE0
:1019A0007FF45DAF00231C9398F800300DF1A0097F
:1019B000002B7FF4A7AE1D9BBA46002B3FF458AF17
:1019C0001BAA3946584605F08DFC51E70A93002AB8
:1019D00040F0E387089B073323F00703B3EC028B47
:1019E000B0EEC87BB4EE497BF1EE10FA089340F3F9
:1019F000BD84B5EEC08BF1EE10FA00F1F6869DF8CD
:101A00004F50B54C2AF080030293B44B0A9A472AF0
:101A1000C8BF1C4603230022CDE9033207930B9273
:101A2000002D3FF454AF039B013303934FE70A9318
:101A3000002A40F09E871AF0200F089B00F02481B6
:101A4000073323F007031A465B6852F8080B089225
:101A50001946002BC0F23584049B013300F0A285A7
:101A60002AF08003029350EA01039DF84F5000F0E2
:101A7000C483DDF808A00A2871F1000380F02D85E9
:101A8000303001238DF89F00CDF808A007930DF1A9
:101A90009F0477E1089B53F8041B0691002980F20C
:101AA0005A84069908934942069198F800304AF002
:101AB000040A46E698F800304AF0400A41E64446F7
:101AC00014F8013B2A2B00F0D787A3F13001092934
:101AD000A04698BF002400F2548718F8013B04EB9D
:101AE000840401EB4404A3F130010929F5D90494DD
:101AF00029E60A93002A40F04887794B0D931AF0A3
:101B000020016ED0089B073323F00703596853F870
:101B1000080B08931AF0010F03D050EA010340F0BC
:101B2000648402234FF000028DF84F200025049AB0
:101B3000561C00F003812AF08004029450EA01044C
:101B400040F0FA80002A40F07D81002B40F059835C
:101B50001AF00103079300F0038430238DF89F30BF
:101B60000DF19F040EE1089D0A9355F8044B4FF0C8
:101B700000038DF84F30049B002C00F04A855A1C5E
:101B800000F069841A460021204603F099FA0028E3
:101B900000F0D286031BCDE90735002223EAE37368
:101BA0009DF84F50CDF808A0049203930B9237E7AD
:101BB0000A93089B4FF000028DF84F2053F8042B36
:101BC000089301238DF87820039307931EAC79E6E0
:101BD0000A93002A40F0DD86424B0D931AF0200153
:101BE00090D11AF0100340F062831AF0400100F027
:101BF0005E83089A52F8040B0892194680B289E76E
:101C00000A934AF0100A1AF0200100F07683089B2C
:101C1000073323F00703596853F8080B089301238F
:101C200080E70A934AF0100A1AF0200100F052836C
:101C3000089B073323F00703596853F8080B0893F0
:101C400000236FE798F800304AF0080A79E598F821
:101C5000003001222B2074E598F800304AF0010A88
:101C60006FE598F8003000287FF46BAD012220204A
:101C700067E50A93002A40F06B864AF0100A1AF0D2
:101C8000200F089B7FF4DCAE53F8040B08931AF086
:101C9000100F40F011831AF0400F00F00D8340F355
:101CA000C0310B4600B2D4E698F800304AF0800A02
:101CB00047E5089B53F8040B089378238DF85130BF
:101CC0000A9330238DF85030054B0D934AF0020AE9
:101CD0000021022326E700BFD8A50308DCA50308DE
:101CE000E8A50308FCA50308002A40F046861AF080
:101CF000200F40F085831AF0100F40F0E0831AF0B7
:101D0000400F00F0DC83089B059953F8042B0893DF
:101D10001180F2E498F800306C2B03BF98F8013082
:101D20004AF0200A08F101084AF0100A09E598F87B
:101D300000304AF0200A04E5DDF808A0012B3FF44A
:101D40009AAE022B00F0868028AC00F00703C00892
:101D500040EA4170C908303350EA0106224604F8CF
:101D6000013DF2D11AF0010F00F08280302B7FD0BC
:101D70003023023A04F8013C28AB9B1ACDF808A0A6
:101D800007931446049B079A9342B8BF13460393E4
:101D900000230B9344E60A9B652B40F3DC80B5EEF1
:101DA000408BF1EE10FA40F0B6811C9BBC49C9F89B
:101DB0000010013301320121072B1D921C93C9F839
:101DC000041000F3FF8309F10809159B0C998B425D
:101DD00003DB029BDC077FF5D1AD0E9B0F991A4404
:101DE000C9E900131C9B1D920133072B1C9300F3C0
:101DF000038409F108090C9B5C1E002C7FF7BEAD23
:101E0000102C1C9BA74D40F3D183102605E009F14F
:101E10000809103C102C40F3C98301331032072B02
:101E2000C9E90056CDE91C32F1DD1BAA39465846F6
:101E300005F058FA00287FF41AADDDE91C320DF1E7
:101E4000A009E6E7012B00F04385022BDDF808A08E
:101E50007FF47AAF0D9A28AC00F00F030009D35C31
:101E600004F8013D40EA0170090950EA0103F3D189
:101E700028AB1B1BCDF808A0079383E7069B0399AB
:101E80005E1A002E7FF761AD102E1C9B854D1EDD66
:101E90004FF0100A04E0103E102E09F1080916DD7B
:101EA00001331032072BC9E9005ACDE91C32F2DDAB
:101EB0001BAA394658460DF1A00905F013FA00286F
:101EC0007FF4D5AC103E102EDDE91C32E8DC013386
:101ED0003244072BCDE91C32C9F80050C9F8046020
:101EE00000F37D83049B07995E1A002E09F108090F
:101EF0007FF731AD102E1C9B6A4D1EDD4FF0100A8E
:101F000004E0103E102E09F1080916DD01331032ED
:101F1000072BC9E9005ACDE91C32F2DD1BAA39466C
:101F2000584605F0DFF900287FF4A1AC103E102ED2
:101F3000DDE91C320DF1A009E8DC01333244072B46
:101F4000CDE91C32C9F80050C9F8046000F3A28141
:101F500009F10809FFE40C9B012B40F357811C9BFE
:101F6000C9F80040013301320121072B1D921C9357
:101F7000C9F8041000F3D58109F108090E990F98EA
:101F800001330A44072BC9E90001CDE91C3200F3F3
:101F9000D58109F10809B5EE408BF1EE10FA00F099
:101FA00053810C990133013901340A44072BC9F8D4
:101FB00000401C93C9F804101D9200F3388109F108
:101FC00008091099C9F8041001330A44072B17A90E
:101FD000CDE91C32C9F800107FF7CEAC1BAA3946F8
:101FE000584605F07FF900287FF441AC1D9A0DF1A9
:101FF000A009C3E4102DDDE91C122B4E28DDCDF81D
:1020000044804FF0100AA0461C460B4604E0103DE9
:10201000102D09F1080916DD01331032072BC9E92B
:10202000006ACDE91C32F2DD1BAA394658460DF193
:10203000A00905F057F900287FF419AC103D102DC8
:10204000DDE91C32E8DC194623464446DDF84480CD
:10205000C9F8006001312A440729CDE91C12C9F8EA
:10206000045000F35C8209F1080943E41BAA3946D5
:102070005846119305F036F900287FF4F8AB1D9A05
:10208000119B0DF1A0094AE41BAA3946584605F0F8
:1020900029F900287FF4EBAB1D9A0DF1A00950E45B
:1020A00010A603081095030800950308102C1C9B2C
:1020B000AC4E1DDD102504E0103C102C09F1080980
:1020C00016DD01331032072BC9E90065CDE91C325A
:1020D000F2DD1BAA394658460DF1A00905F002F9B8
:1020E00000287FF4C4AB103C102CDDE91C32E8DC86
:1020F00001332244072BC9E90064CDE91C327FF784
:1021000046AC1BAA3946584605F0ECF800287FF487
:10211000AEAB1D9A3BE41599002940F30F82DDE92F
:102120000B359D42A8BF1D46002D0BDD1C9B0133C6
:102130002A44072BC9E900451D921C9300F3DE8356
:1021400009F108090B9E002DA8BF761B002E00F395
:102150009381159B0C998B4280F261810E990F98A7
:102160000A44C9E900011C991D92013107291C91FB
:1021700000F3408309F108090C990B98CB1A0D1A4A
:102180009D42A8BF1D46002D0EDD1C99C9F80450C4
:10219000013104442A440729C9F800401D921C91CA
:1021A00000F3B88309F10809002DACBF5C1B1C4685
:1021B000002C7FF7E3AB102C1C9B6B4D40F3F6819A
:1021C000102605E009F10809103C102C40F3EE81BF
:1021D00001331032072BC9E90056CDE91C32F1DD7D
:1021E0001BAA3946584605F07DF800287FF43FAB1E
:1021F000DDE91C320DF1A009E6E7049B002B40F05D
:10220000678300230493079328ACBBE5029BD9079F
:102210003FF5A5AE1C9BC9F80040013301320121F6
:10222000072B1D921C93C9F804107FF7C8AE1BAA98
:102230003946584605F056F800287FF418ABDDE91A
:102240001C320DF1A009BCE60C994C1E002C7FF746
:10225000B8AE102C444DC8BF102606DCE2E109F1EF
:102260000809103C102C40F3DD8101331032072B9C
:10227000C9E90056CDE91C32F1DD1BAA39465846A2
:1022800005F030F800287FF4F2AADDE91C320DF1E8
:10229000A009E6E71BAA3946584605F023F80028AE
:1022A0007FF4E5AA1D9A0DF1A009FFF754BB089B26
:1022B00053F8040B08932DE4C1170B46002BBFF60F
:1022C000CBAB40424FF02D0561EB41018DF84F50F3
:1022D00001232CE41AF0100309D11AF0400106D0B2
:1022E000089A52F8040B0892194680B21AE4089B27
:1022F00053F8040B08930B4614E41AF010030AD1A8
:102300001AF0400107D0089A52F8040B08921946B7
:1023100080B2012306E4089B53F8040B08930123C1
:1023200000E41BAA3946584604F0DCFF00287FF47D
:102330009EAADDE91C320DF1A0091FE61BAA394651
:10234000584604F0CFFF00287FF491AADDE91C3243
:102350000DF1A0091FE6089398F80030FFF7F1B9D6
:1023600028AC0FE50095030810950308B4EE488BE0
:10237000F1EE10FA80F14F83049B01330A9B23F0A6
:10238000200600F0D682472E00F0A1804AF4807328
:10239000029318EE903A002BC0F24682B0EE48ABA2
:1023A00000250A9B662B00F07C81462B00F079818A
:1023B000B0EE4A0B452E0ABF049B049A5A1C19AB77
:1023C000019316AB0093022115AB5846039201F01E
:1023D00097FC0A9B039A672B044640F085821AF00B
:1023E000010F00F0AB81A11870E10A9B8DF851300C
:1023F00030238DF850304AF0020A0223FFF792BBD7
:10240000089B059853F8041B0893C217C1E9000202
:10241000FFF773B90A93FFF7F6BB0A9304E4029936
:10242000C8073FF59BAEDDE90B010D1ACB1A9D42A3
:10243000A8BF1D46B8E64021584602F02BFBCAF85B
:102440000000CAF81000002800F025834023CAF8D5
:102450001430FFF743B920460895CDF808A0FFF7E0
:102460006FF8002320EAE0729DF84F500790049324
:1024700003920B93FFF7D4BA102E1C9BAC4D40F384
:10248000A7814FF0100A05E009F10809103E102E4F
:1024900040F39E8101331032072BC9E9005ACDE980
:1024A0001C32F1DD1BAA3946584604F01BFF0028F8
:1024B0007FF4DDA9DDE91C320DF1A009E6E7089BF8
:1024C000059953F8042B11600893FFF716B9049B84
:1024D000002B08BF0123049358E728ACCDF80880EF
:1024E000A84625460A22002304460E4609F03AFB78
:1024F000303205F8012D0023204631460A2209F02A
:1025000031FB0A2C76F10003ECD22C4628AB1B1BC6
:1025100045460793DDF80880CDF808A032E41BAAF1
:1025200039465846119304F0DDFE00287FF49FA938
:102530001D9A119B0DF1A009FFF7DCB91C9B7D488A
:10254000C9F80000013301320120072B1D921C93B2
:10255000C9F8040000F35B8109F1080900296DD175
:10256000029B0C9903F001030B433FF407AA0E9B57
:102570000F991A44C9E900131C9B1D920133072BC4
:102580001C9300F3578109F108090C99C9F8004020
:1025900001330A44072BCDE91C32C9F804107FF738
:1025A000EBA91BE59DF84F50FFF765BA01332244B4
:1025B000072BC9F80050C9F80440CDE91C327FF759
:1025C000DBA90BE51BAA3946584604F08BFE002810
:1025D0007FF44DA91D9A0DF1A009FFF7F6BB1BAAC8
:1025E0003946584604F07EFE00287FF440A91D9A23
:1025F0000DF1A009FFF7A9B91BAA3946584604F006
:1026000071FE00287FF433A91D9A0DF1A009FFF790
:10261000F2BB062B28BF0623CDE90735464C0393B2
:10262000FFF750B901332244072BCDE91C32C9F81A
:102630000050C9F804407FF7C2ACF8E50E9B0F9834
:102640001A44C9E900031C9B1D920133072B1C93FC
:1026500000F3F08009F10809002996DA4E421031A2
:10266000334DB8BF4FF0100A06DB9EE109F10809AF
:10267000103E102E40F3998101331032072BC9E927
:10268000005ACDE91C32F1DD1BAA3946584604F048
:1026900029FE00287FF4EBA8DDE91C320DF1A0092A
:1026A000E6E719AB019316AB0093032115AB049A2F
:1026B000B0EE4A0B584601F023FB049B0446C118B8
:1026C0002378302B00F08981159B1944B5EE40AB7F
:1026D000F1EE10FA00F0AC80199B8B4206D230204C
:1026E0005A1C19921870199B9942F9D81B1B472E36
:1026F0000C932AD00A9B662B40F0CA81159B049A42
:102700000B93002B0AF0010A40F3E6805AEA02011B
:1027100040F093810B9B03930793002D00F0E98019
:102720002D238DF84F3000230493FFF77CB900BFB1
:102730001095030810A60308649F0308199B472EF1
:10274000A3EB04030C9340F0A381159B0B93D91CBE
:1027500012DB049A93420FDCDDE90B329342C0F2A4
:10276000FB801AF0010F40F0438123EAE3720793E4
:10277000672303920A93D0E70A9B023B0A930B9AC2
:102780000A9B8DF85C30531E002B1593B6BFC2F127
:1027900001032B222D22092B8DF85D2064DC3033C0
:1027A0008DF85F3030238DF85E30042310930C9A3F
:1027B000109B012A1344079340F32481079B0E9A30
:1027C0001344079323EAE373039300230B93A4E7D3
:1027D00001333244072BCDE91C32C9F80050C9F847
:1027E000046035DC09F10809B3E42D258DF84F505C
:1027F000FFF707B91BAA3946584604F073FD0028B5
:102800007FF435A8159B1D9A0DF1A009B4E41BAA0D
:102810003946584604F066FD00287FF428A815992B
:102820001D9A0DF1A00999E62D25B1EE48ABB8E54A
:102830000B465BE71BAA3946584604F053FD0028B7
:102840007FF415A8DDE91C3215990DF1A00903E705
:102850001BAA3946584604F045FD00287FF407A816
:102860001D9A0DF1A00974E40DF16B06DFF840C26A
:10287000324610468CFB0321DA17C2EBA10202EBB1
:102880008201A3EB4101303100F8011C1946632994
:10289000134600F1FF32ECDC3033D9B2831E9E4286
:1028A00002F8011C40F2E58013460DF15E0201E0E2
:1028B00013F8011B02F8011B9E42F9D10DF16D03C3
:1028C0000DF15E021B1A134417AA9B1A10936EE7B0
:1028D000DDF808A0FFF7D4B85AEA020340F0C1803F
:1028E00001230393079318E70A9B472B3FF477AD27
:1028F00079E504959DF84F50FFF792B81BAA394629
:10290000584604F0EFFC00287EF4B1AF1D9A0DF19B
:10291000A00917E41BAA3946584604F0E3FC002836
:102920007EF4A5AF0C9A159B0DF1A009D31A1D9A40
:102930003AE40623049329E5049B0895CDF808A002
:102940009DF84F500393079304900B90FFF768B8DE
:102950008DF84F00FFF791B90E9A0C9B13440B9A18
:102960000793002A71DD23EAE373039367230A9335
:10297000D3E68DF84F00FFF75EB88DF84F00FFF7F4
:10298000B6B900210491FEF7DEBE8DF84F00FFF7C7
:10299000B4B88DF84F00FFF71FB98DF84F00FFF75F
:1029A00019B88DF84F00FEF77FBF01333244072B73
:1029B000CDE91C32C9F80050C9F804607FF7E3ADD7
:1029C0001BAA3946584604F08DFC00287EF44FAF10
:1029D000DDE91C320DF1A009D7E5B5EE40ABF1EE13
:1029E00010FA3FF471AE049BC3F1010315936CE63A
:1029F0000B9B0E9A1344079323EAE3730393672315
:102A00000A938AE61AF001020B927FF4D7AE23EA0A
:102A1000E373039381E618EE903A002BB8BF2D259F
:102A20002AF080030293A8BF9DF84F501E4C1F4B05
:102A3000B8BF8DF84F50FEF7E9BF0E990B441A440A
:102A400022EAE2730792039367E60B9B079AC3F1AE
:102A500001031A4422EAE2730393672307920A935D
:102A60005BE60E9B01331A4422EAE273079203935A
:102A700053E6022310939AE6089998F80130A0468D
:102A800051F8044B089144EAE4740494FEF759BEEB
:102A9000159B0B9373E60C23CBF800304FF0FF33FC
:102AA0000593FEF7EEBE00BFE0A50308E4A503080A
:102AB000676666662DE9F04F8B46B1F90C10ADF5EF
:102AC000317D8E048146089309D4DBF8643041F4EB
:102AD000005123F40053ABF80C10CBF8643092464D
:102AE0001AF8012B1392002A00F01F870023734F5E
:102AF00009930A93079398460493BB5C13F0080369
:102B000072D1252A60D19AF800001E461D46A0F118
:102B100025020AF10101532A61D8DFE812F05400BE
:102B200060006000600060006F0460006000600092
:102B300060006000AE00AE00AE00AE00AE00AE00C1
:102B4000AE00AE00AE00AE0060006000600060004D
:102B50006000600060006000600060000B04BA006C
:102B60006000BA0060006000600060003004600037
:102B700060000204600060006000600060006000AF
:102B8000600060009F03600060001404600060004B
:102B9000600060006000600060001E040D04BA0068
:102BA000BA00BA003A044404600060004B046000BC
:102BB0005804040423046000600026046000290413
:102BC000600060009F038A46DBF80430002B3DDD87
:102BD000DBF800301AF8012C1978914225D00498BE
:102BE0000DF5317DBDE8F08FDBF804200EE0DBF859
:102BF00000301A78BA5C150703F101030ED5DBF833
:102C00000420013ACBE9003208F10108002AEEDC89
:102C10005946484605F050F90028E8D01AF8012B2B
:102C20001392002A7FF469AFD9E70133CBF8003063
:102C3000DBF80430013BCBF804301AF8012B139277
:102C400008F10108002A7FF458AFC8E75946484602
:102C500005F032F90028BBD0049A002A00F0C386A0
:102C6000BBF80C3013F0400F18BF4FF0FF32049246
:102C700004980DF5317DBDE8F08F16F08F0FAED1C1
:102C800005EB850500EB4505303D9AF801008A46C5
:102C90003DE78A460424DBF80420002A40F3EC8256
:102CA000720640F1F582621E032A00F2DE86DFE83A
:102CB00012F0CC018701D300070000BFF99303088D
:102CC0004846039301F0DEFE6A1E03680D93B2F5D9
:102CD000AE7F039B40F2F2836FF4AE7C05EB0C02F7
:102CE000109240F25D15002258A946F4F0660B914F
:102CF0000C46CDF838A059461192CB460F92069259
:102D00000C9203969A46914608680278A2F12B0C21
:102D1000BCF14E0F50D8DFE81CF0E6014F00E60191
:102D20004F004F008A029700970097009700970086
:102D300097009700970097004F004F004F004F00FB
:102D40004F004F004F00DF014F004F004F00660261
:102D50005F024F004F0007024F004F004F004F002F
:102D6000EE014F004F004F004F004F00D8014F00C1
:102D70004F004F004F00D1014F004F004F004F0058
:102D80004F004F004F00DF014F004F004F00660221
:102D90005F024F004F0007024F004F004F004F00EF
:102DA000EE014F004F004F004F004F00D8014F0081
:102DB0004F004F004F00D1010D9B93F800C0944588
:102DC00016D1039B9E0513D523F420730393069B12
:102DD0000C9304F8012B013D4A68013A002A08F1DE
:102DE00001084A6040F3238301300860002D8BD135
:102DF0004A46D9468B460699039E5346DDF838A0CD
:102E0000002940F05883013A012A40F2DE855A1E1B
:102E1000062A00F2A281022B40F21086032B00F05A
:102E20009C81043BDBB2DD430393254414F8011D70
:102E30005A46484605F000F8A542F7D1039B08F131
:102E4000FF38A8EB030888E119EB0A0FD0D1039BE8
:102E500023F4C0730393BCE76B1EB3F5AE7F40F25F
:102E600020836FF4AE72AB18069340F25D1558AC38
:102E700000235946D346C246DDF81C800B9446F425
:102E8000586603930A681078A0F12B034D2B60D885
:102E9000DFE813F039025F0039025F005F00BD0216
:102EA000C701C701C701C701C701C701C7013F0269
:102EB0003F025F005F005F005F005F005F005F0038
:102EC0004E004E004E004E004E004E005F005F0070
:102ED0005F005F005F005F005F005F005F005F00FA
:102EE0005F005F005F005F005F005F005F002C021B
:102EF0005F005F005F005F005F005F005F005F00DA
:102F00004E004E004E004E004E004E005F005F002F
:102F10005F005F005F005F005F005F005F005F00B9
:102F20005F005F005F005F005F005F005F002C02DA
:102F3000B8F10A0F0DDD26F4386604F8010B4B6872
:102F4000013B002B4B6040F37E8201320A60013D61
:102F500098D1F005CDF81C80D046DA468B4607D5CF
:102F60000B9B9C4200F2A5840B9B9C423FF437AE26
:102F700016F0100240F078820B99079B099D227091
:102F80004846A847B10600F16782720700F1338412
:102F900016F0010240F06082B30740F15D82AD4B54
:102FA000099999424846079B0B9900F0318503F037
:102FB000DFFF089B53F8042B0893C2E9000150E29D
:102FC000002D08BF4FF0FF35F10700F18182F106B7
:102FD00040F12F83DBF800301A78BA5C12073FF516
:102FE0001DAE0133CBF80030DBF80430012D03F1C6
:102FF000FF33CBF8043008BF08F101083FF40EAEF0
:10300000012412E0DBF800301A78BA5C160703F1ED
:10301000010312D4CBF80030DBF804300134013B5B
:10302000A542CBF8043000F05C84002BEADC594662
:10303000484604F041FF0028E4D0A0441AF8012BD0
:103040001392002A7FF459ADC9E5002D08BF4FF057
:10305000FF35F20700F13583F00640F19F82DBF87F
:10306000003018AE1A78B25C002A3FF4B8AD0133D4
:10307000CBF80030DBF80430012D03F1FF33CBF83F
:10308000043011D1D9E7DBF800301A78B25C013393
:10309000002AD2D0CBF80030DBF804300134013BF9
:1030A000A542CBF80430C8D0002BECDC594648468A
:1030B00004F002FF0028E6D0A044BFE7BAF1070FF2
:1030C0007FF496AE4FF0080A83E6BAF1060F7FF45C
:1030D0008FAE4FF0070A7CE6B9F1010F7FF488AE9E
:1030E0004FF0020975E6039B1E067FF581AE23F0C3
:1030F000800303936DE6B9F1000F40F0CB81069B8E
:1031000033B9039B03F4E06CBCF5E06F00F0F3838C
:10311000BAF1010F03D0BAF1040F7FF469AE0AF1DE
:10312000010A5FFA8AFA54E6BAF1000F40F0A98169
:10313000069B002B40F0B881039B03F4E06CBCF5C8
:10314000E06F00F0D1834A46013A012AD946039E36
:10315000DDF838A08B4640F23884F50513D57005AC
:1031600000F1468414F8011C652904F1FF3308F1CD
:10317000FF3502D0452940F031835A464846A846DB
:103180001C4604F059FE16F010027FF447AD06F419
:10319000C063B3F5806F227000F094830F9B002B07
:1031A00040F046830B990022484603F0BFFCF1072C
:1031B000089B02D4B20740F1248353F8042B82ED1C
:1031C000000B0893049B1AF8012B1392013304930C
:1031D000002A7FF492AC02E5BAF1020F7FF408AE48
:1031E0004FF0030AF5E5039B03F4A06CBCF5806F78
:1031F00006D05E057FF5FCAD069B002B00F0DC835E
:10320000039B9B0504D4069B0C9E11949B1B0F9360
:10321000039B23F4F06646F4C073039300230693E4
:10322000D7E50D4B26F4386633F9188085E6039B05
:10323000DE057FF509AE23F080030393069B01337F
:103240000693109B002B3FF4C6AD109B013B1093DF
:10325000C2E500BFE17002082095030846F400763D
:10326000984A099210220792DBF80420002A8A4625
:103270004FF003043FF714AD59464846039304F05A
:103280001BFE039B00287FF4E7AC72063FF50BADF5
:10329000DBF800100A78BA5C10077FF504AD0393E1
:1032A0005B460A46C346A0461C4604E022601378EB
:1032B000FB5C190714D56368013B002B0BF1010B74
:1032C000636002F10102F1DC2146484604F0F4FD9E
:1032D000002840F0F38122681378FB5C1907EAD4D8
:1032E0002246039B4446D8469346DCE406F4C0637A
:1032F000B3F5007F7FF42DAE26F4007646F4A06689
:103300004FF0100819E633067FF523AE26F080064D
:1033100013E66D4B33F91880B8F1080F3FF70BAE89
:1033200017E646F00106674A099208228A46079284
:103330000324B0E446F00106644A09920A228A4650
:1033400007920324A7E418A8039302F055FC46F063
:103350004006039B824601249DE446F040068A46CF
:10336000002498E446F408767AE78A46022492E438
:10337000544A09920A228A46079203248BE43007B2
:103380007FF42DAC9AF8010046F002068A46FFF75A
:10339000BEBB32077FF423AC9AF8010046F0040666
:1033A0008A46FFF7B4BB494A099200228A4607922F
:1033B000032470E434077FF412AC9AF801006C28FF
:1033C00000F0878246F001068A46FFF7A0BBF306AD
:1033D00000F1FE81750700F12282F40700F1A88256
:1033E000B00740F1A582089B53F8042B08934FEADD
:1033F000E8738A46C2F8008053600FE435437FF4D7
:10340000EEAB9AF8010010268A46FFF780BB330521
:103410007FF593ADB8F1000F03D146F400764FF07D
:103420000808730540F1C88126F4B06685E5584662
:10343000059104F041FD059900287FF4D9AC002DD9
:103440007FF462ACD4E44846059104F035FD05995B
:1034500000283FF47CAD7CE5089B53F8042B1060FA
:103460000893049B013304930B9B1AF8012B1392CE
:10347000E41A039B23449844002A7FF43EABFFF7F1
:10348000AEBBBAF1030F3FF44AAEBAF1050F3FF4F9
:1034900046AEADE4B9F1020F7FF43AAE4FF0030946
:1034A00097E400230693E2E45346039EDDF838A038
:1034B0004A46D9468B4626F48076A4E40022109230
:1034C00011E400BFE170020820950308996D02081D
:1034D00016F0100640F07F81089B53F8042B0392EE
:1034E0000893DBF800301B78FB5C13F0080440F015
:1034F000D6810596CDF818A001F09CFAA0422E4680
:103500003FF4AAABDBE9003213F8011B013ACBE927
:1035100000320A9B58A8032B015504F1010A16AD8D
:1035200002D12B68042B04D0082200212846FDF785
:103530005BFB58AA039900955346484601F054FD99
:10354000421C0A903FF488AB002840F0DB81039ACC
:10355000106001F041FA002840F00282D044013EA0
:10356000059B002B40F00F82039A043203929A4687
:10357000DBF80430002B40F3E481DBF800301B78EB
:10358000FB5C180700F18981002E00F0868101F0B4
:1035900051FA5446A042B5D1FFF75EBBDBF80020DC
:1035A0000899137851F8040B039018AE0591F35C59
:1035B000002B3FF414ABDBF80430013BCBF80430B4
:1035C000531CCBF800300446137804F8013B012D5E
:1035D00021D0054411E0DBF800301A78B25CD2B19A
:1035E000DBF80420013ACBF804205A1CCBF8002069
:1035F0001B7804F8013BAC420DD0DBF80430002B03
:10360000E9DC5946484604F057FC0028E3D0039B08
:10361000A3423FF421AB039BE61A3FF4E0AA049BCC
:1036200001330493059B08930023B0442370FFF7F4
:10363000F5BA089B1A46DBF8003052F8046B039287
:103640001A78BA5C100700F1E181DBF80420013A36
:10365000CBF804205A1CCBF8002034461B7804F821
:10366000013B012D00F0D881354412E0DBF8003039
:103670001A78BA5C110716D4DBF80420013ACBF8AB
:1036800004205A1CCBF800201B7804F8013BAC4204
:1036900009D0DBF80430002BE8DC5946484604F03A
:1036A0000BFC0028E2D0A61BB044049B013304931A
:1036B000039B089300232370FFF7B0BAA346FFF7DC
:1036C000CBBA16F010030B9340F09280089B53F88E
:1036D000042B03920893CDE905580A9CCDF830A03D
:1036E000002601F0A7F9B0423FF4B6AADBE90032A8
:1036F00058A813F8011B8155013A032CCBE900327D
:1037000006F1010A0DF1500803D1D8F80030042B5E
:1037100004D0082200214046FDF766FA039DCDF84B
:103720000080534658AA2946484601F05DFC431CD8
:1037300004463FF491AA002840F08E802860054698
:1037400016AB0822002118460A93FDF74DFAB84936
:103750000A9BD1F8E0102A4648460D4612A9A84710
:10376000012800F09180002218AB9B5C002B00F038
:103770000D81069B032C5344069300F08880059B23
:10378000013B05930B9B13B9039B04330393DBF8B5
:103790000430002B4FF0000667DD059B002BA0D105
:1037A000DDF81880DDF830A00A940B9B002B7FF425
:1037B00035AA039A136005E5069B26F4607613B1DB
:1037C000013B06930135039B01330393FFF7B7BB1E
:1037D0008A46FFF723BA13AB039382E65A4648465C
:1037E00004F02AFBA8F1020514F8021CA31EC4E48D
:1037F00013AB03936FE7089B53F8042B08931080D7
:103800002FE6B4EE400BF1EE10FA53F8044B80F1C2
:103810000681B7EEC00B089384ED000AD2E4089B42
:1038200053F8042B08938A46A2F80080FFF7F6B9F4
:10383000119C21460A230131484603F0ADFA0F9B43
:10384000C21A0DF2B3239C4228BF0DF2B22479496B
:10385000204602F033FAA5E4851C40F0FE80DBF838
:103860000430002B56463FF73CAF5946484604F01B
:1038700023FB002891D0DDF81880DDF830A00A94F1
:10388000002E92D0FFF7E8B99DF848206CE7D8F8F1
:103890000030042B7FF473AF74E7DDE9056A002E76
:1038A0007FF4BCA9039B1E60049B01330493FFF7C4
:1038B000B5B914F8011C5A464846013C04F0BCFA5C
:1038C000FFF752BB0C9B06998B42A3EB0102B8D1C8
:1038D00068E49AF8020046F002060AF1020AFFF7CD
:1038E00016B9A844FFF79AB923F4F06303934FF095
:1038F000010AFFF76EBA23F4F06303934FF0010956
:10390000FFF767BA0A9B02333FF432AE039B186895
:1039100001F062F820BB0A9B032BD0447FF41FAE5A
:103920002B68042B7FF41BAE1AE60492FFF757B9FD
:10393000089B53F8042B8A46C2F800800893FFF7CF
:103940006DB95946484604F0B7FA00283FF415AE61
:103950005346059EDDF818A0002B7FF47DA99EE755
:103960005346059EDDF818A0002B98D058AB1C4498
:10397000C3F1010514F801195A46484604F05CFAEF
:10398000E542F7D18BE74FF0000AF1E55346DDF849
:103990001880DDF830A00A94002B3FF406AF58AB36
:1039A0001E44C3F1010416F801195A46484604F0B2
:1039B00043FAF442F7D1F8E64A465346D946039E05
:1039C000DDF838A08B46FFF71EBA0B9DAC427FF6A0
:1039D00006A914F8011D5A46484604F02DFAAC42D7
:1039E000F7D1FFF7FCB84FF0FF330493FFF7F7B8B8
:1039F0000B9DAC427FF6F3A814F8011D5A464846C9
:103A000004F01AFAAC42F7D1FFF7E9B834464CE6B5
:103A100003F04EFCFFF7CDBA08F1010845E6064871
:103A20000893FDF701F884ED000AFFF7CBBB00BF58
:103A30003804002414A60308809F03080B9A9442BC
:103A40007FF6CDA814F8011D5A46484604F0F4F953
:103A50000B9B9C42F6D1FFF7C2B8039B1B681D4627
:103A600001337FF46DAE2A467EE6012D38BF012575
:103A700016F0010415D1F10679D4089C2B4654F8B0
:103A8000041BCDF800B00122484604F033FA0028A8
:103A90003FF4E2A8049B0894013380440493FFF7A9
:103AA000BDB816F01003039308BF089BCDF814A00F
:103AB00004BF53F8046B08934FF000040A9BAA4616
:103AC00018BF00264D46A146069300F0B3FF4845B7
:103AD0003FF4C2A8DBE9002158AB12F8010B03F850
:103AE0000900069B0139032BCBE9002109F10109EB
:103AF00016AC02D12368042B04D0082200212046F2
:103B0000FDF772F84B4658AA00943146284601F05A
:103B10006BFA421C03463FF49FA800283DD1039A4C
:103B200002B93260C8440AF1FF3A039A02B9043676
:103B3000DBF80420002A4FF0000934DDBAF1000F51
:103B4000C2D1DDF814A00A93A946039B002B3FF4D1
:103B500039ABFFF763B8DBF800201A44CBF800203C
:103B6000594648461C44ED1A04F0A6F978B9DBF82A
:103B700004309D42EFDC5B1BCBF80430DBF80030F7
:103B80002C441D44CBF80050A044FFF757BA002C3A
:103B90003FF462A8A044FFF751BA981C14D1DBF897
:103BA0000420002A90DC59462846069304F084F944
:103BB000069B0028C2D04C46DDF814A00A93A94603
:103BC000002CC2D0FFF748B8032BC844ABD1226801
:103BD000042AA8D1A9E700BF2DE9F04F03690C69B9
:103BE000A34283B0C0F28780013C01F11405A30019
:103BF00000F11408009355F8243058F824200133BC
:103C000081469A4208EB840005EB84070190B2FBE1
:103C1000F3F63BD30023AE4640469B465EF804AB2A
:103C200002681FFA8AFC06FB0C334FEA134C4FEA7A
:103C30001A4A06FB0ACA1FFA83FCABEB0C0C1FFAEC
:103C40008AF31CFA82FCC3EB124202EB2C421FFAED
:103C50008CFC4CEA0243774540F8043B4FEA224B88
:103C60004FEA1A43DAD2009B58F8033073B9019B2C
:103C7000043B984504D307E0984504F1FF3403D290
:103C800053F80429002AF7D0C9F81040484601F03B
:103C90004DFD00282BDB01364046002355F8041B60
:103CA000D0F800C08AB29A1A0B0C12FA8CF2C3EB4D
:103CB0001C4303EB224392B242EA0342AF4240F874
:103CC000042B4FEA2343E9D258F8242008EB84035D
:103CD0006AB9043B984504D307E0984504F1FF34E2
:103CE00003D253F80429002AF7D0C9F8104030460F
:103CF00003B0BDE8F08F002003B0BDE8F08F00BF37
:103D00002DE9F04F2DED028B8FB0CDE905320191F9
:103D1000016C1A9D8DED020B57EC106B044641B1FE
:103D2000426C4A60012393408B6001F043FA002308
:103D30002364B7F10008B4BF012300232B60BE4BFE
:103D4000BCBF28F00048CDF80C8033EA080300F02F
:103D50009F809DED028BB5EE408BF1EE10FA10D1F5
:103D6000059A012313601B9B002B00F03982B34896
:103D70001860431E009300980FB0BDEC028BBDE8A5
:103D8000F08F0CAA0DA92046B0EE480B01F026FEDC
:103D90005FEA1853054640F09380DDE90C130B44AD
:103DA00003F23242202A40F3FF82C2F1400208FAB5
:103DB00002F803F21242D64048EA060207EE102A41
:103DC000B8EE477B581E17EE906A0123089353EC18
:103DD000172BA6F1F8739FED923B9FED937B9FED20
:103DE000945B06EE900A43EC122BB8EEE64BB7EE6E
:103DF000086B32EE466BA6EE037BA4EE057BFDEE70
:103E0000C76BB5EEC07BF1EE10FA16EE908A08D5BE
:103E1000B8EEE66BB4EE476BF1EE10FA18BF08F19E
:103E2000FF38B8F1160F00F24581854B03EBC8034C
:103E300093ED007BB4EEC78BF1EE10FA57D5091A5B
:103E400000234F1E08F1FF38099300F139814FF02C
:103E50000009B8F1000F51DA019BCDF81080092B51
:103E6000A9EB0809C8F1000A4FF000084ED8052B4D
:103E700040F3A182043B01930026019B9A1E032A72
:103E800000F22281DFE812F0AE03AB03A20382034B
:103E9000059A42F20F73C8F31308136058EA060339
:103EA0001ED11B9B002B00F08585664B00930833C9
:103EB0001B9A009813600FB0BDEC028BBDE8F08F29
:103EC00018EE906AA3F2FF30C6F31306002308939E
:103ED00053EC182B46F07F530C9943F440137AE7C8
:103EE0001B9B002B40F04183574B009343E7091A7B
:103EF00000234F1E099300F1E3809946019BCDF802
:103F00001080092B47444FF0000AB0D90023012646
:103F1000019307964FF0FF3B069300216164CDF8B3
:103F20002CB0204601F020F90090002800F03185E7
:103F3000009B2364BBF10E0F00F2D980002E00F02D
:103F4000D680049B002B40F3D2833D4A03F00F013F
:103F500002EBC10292ED007B1A11DB0540F1748384
:103F60003A4991ED086B02F00F02032088EE065BE0
:103F70005AB13649D60704D591ED006B013027EED2
:103F8000067B521001F10801F4D185EE076B099B05
:103F90003BB1B7EE007BB4EEC76BF1EE10FA00F167
:103FA000988407EE900AB8EEE75BB1EE0C7BA5EEC5
:103FB000067B17EE902A51EC170BA2F15071BBF162
:103FC000000F00F06E83049E5A46079B002B00F002
:103FD0003184B6EE003B1A4BFDEEC64B03EBC20C30
:103FE000B8EEE47B36EE477B1CED026B83EE065B9E
:103FF00041EC160B14EE900A35EE465B0099B4EED8
:10400000C57B3030F1EE10FA01F8010B00F19B8412
:10401000B7EE002BB2EE044B4FF0000C31E000BFC6
:1040200061436F63A787D23FB3C8608B288AC63FBE
:10403000FB799F501344D33F0000F07F11A6030883
:104040005895030820A603081CA6030848960308F1
:104050000CF1010C94454ADA27EE047B25EE045B53
:10406000FDEEC76B16EE903AB8EEE63B303337EE16
:10407000437BB4EEC57BF1EE10FA01F8013B00F191
:10408000628432EE476BB4EEC56BF1EE10FADFD509
:10409000009A049602E0914200F03F84894611F8AC
:1040A000013D392BF7D00133DBB20B70049B013398
:1040B000049361E1091A01234F1E09937FF5C7AEEE
:1040C000C1F101090027C4E6002666643146204696
:1040D00001F04AF80090002800F05B84009B236404
:1040E00001224FF0FF3306960B9307929B460D9AE1
:1040F000002A55DB04990E2952DCBB4B03EBC103AC
:1041000093ED006B069B002B15DABBF1000F12DC60
:1041100040F0DB82B1EE047B26EE076BB4EEC68B7B
:10412000F1EE10FADA465E4600F27582069BDDF883
:104130000080DF4377E288EE067BBDEEC77B009907
:1041400017EE103ABBF1010F03F13003B8EEC75B75
:1041500001F8013BA5EE468B00F02283B2EE044B42
:10416000012311E088EE067BBDEEC77B013317EE1D
:10417000102A5B4502F13002B8EEC75B01F8012B53
:10418000A5EE468B00F00C8328EE048BB5EE408B39
:10419000F1EE10FAE6D1049B013304938946EBE07B
:1041A000079B2BB3019B012B40F361820BF1FF3383
:1041B0009A4580F24682A3EB0A0AD0449A4600232D
:1041C000BBF1000FC0F21D83CDF820905F44D944AD
:1041D000012120460A9301F0F5F80A9B06460BE000
:1041E000824B009300980FB0BDEC028BBDE8F08FBE
:1041F000079ECDF820905346089900290ADD002F2C
:1042000008DDB9420A46A8BF3A46891AA9EB020955
:104210000891BF1ABAF1000F1BD0079A002A00F0CC
:104220005F82002B11DD1A46314620460A9301F0C9
:10423000A5F92A4601460646204601F0F1F829462E
:104240000546204600F0B6FF0A9BBAEB030240F099
:10425000D2820121204601F0B5F8B8F1000F824664
:1042600000F3AB80019B012B40F3838100230A9371
:104270000120B8F1000F40F0AC80384410F01F006E
:1042800000F09080C0F12002042A40F39783C0F12F
:104290001C00089B0344814408930744B9F1000FB4
:1042A00005DD29464A46204601F0C8F90546002F9B
:1042B00005DD51463A46204601F0C0F98246099B89
:1042C000002B40F03781BBF1000F40F31D81079BAD
:1042D000002B40F09B80049B01330493DDF80080A9
:1042E000012707E0294600230A22204600F06CFF40
:1042F0000137054651462846FFF76EFC5F4500F141
:10430000300008F8010BEDDBBBF1000F009AD8BFBD
:104310004FF0010B03469344002729460122204613
:10432000019301F08BF95146054601F0FFF9002891
:1043300040F392811BF8013C009A0BF1FF3B04E033
:104340005A4500F0C6811BF8013D392B0BF10109DC
:10435000F6D001338BF800305146204600F02AFF9A
:1043600056B12FB1B74203D03946204600F022FFA4
:104370003146204600F01EFF2946204600F01AFF75
:10438000002389F80030DDE904231A601B9B002B11
:104390003FF4F1AC0098C3F800900FB0BDEC028B75
:1043A000BDE8F08F1C2074E7C2F1200206FA02F289
:1043B00007EE102A04E501265FE501464246204645
:1043C00001F0DCF8019B012B824640F3B58100230C
:1043D0000A93DAF810200AEB8202106900F0A2FFBB
:1043E000C0F1200049E700BF5895030810A6030854
:1043F000314600230A22204600F0E6FE0B9B002BEC
:10440000064640F3B882CDF810809B46089B002BEF
:1044100005DD31461A46204601F010F906460A9B92
:10442000002B40F0D181B046029B009F03F00102B7
:104430007B1E5B440893019B0A92134309935146E8
:104440002846FFF7C9FB31468346284601F06EF93E
:10445000424651468146204601F08AF9C26801462B
:104460000BF13003002A42D1CDE90603284601F0C2
:104470005DF906990290204600F09CFE029A079B87
:104480001AB90999002900F06882B9F1000FC0F249
:104490006981019949EA01090A9951EA090100F083
:1044A0006181002A00F3B181089A3B7007F101098C
:1044B0009742CB4600F0AF81294600230A222046CE
:1044C00000F082FE4645054631464FF000034FF0AE
:1044D0000A02204612D000F077FE4146064600232D
:1044E0000A22204600F070FE4F468046A7E720468D
:1044F000029300F05FFE029B0122C6E700F064FE1B
:104500004F46064680469AE7019B022B71DC079BCB
:10451000002B7FF47BAF049B514601332846049364
:10452000FFF75AFBDDF800B000F130030BF8013B58
:104530000027F2E65146284601F0F8F80028BFF6B9
:10454000C2AE294600230A22204600F03DFE049B0D
:1045500003F1FF38079B0546002B7FF449AF0B9B07
:10456000002B40F301829B46B8E6AE4B0093033329
:104570009EE4DDE9020100287FF478AEC1F3130266
:10458000002A00F0E480029B0A9371E6012307935E
:10459000069B049A134403F1010BBBF1010FDC46A7
:1045A0000B93B8BF4FF0010C0021BCF1170F6164F1
:1045B0007FF7B7AC01200422520002F114036345D7
:1045C000014600F10100F7D96164AAE401230793D1
:1045D000069B002B3CDD0B939B469C46E4E70023A7
:1045E0000793D5E700230793F2E7DDF82CB0CDF869
:1045F0001080BBF1000F7FF499AD51465B46052258
:10460000204600F0E1FD01468246284601F08EF882
:1046100000287FF78BAD0098049F3123804600F877
:10462000013B013700905146204600F0C3FD7B1C42
:10463000DDF800900493CDF80080002E7FF498AE52
:104640009AE6AAEB0303BBE50220B0EE485B8FE4D9
:10465000012306939B4660E403D1019BDB073FF5F2
:1046600069AED9461BF8013D302BFAD074E6089BA1
:10467000002B00F0258102F23342CDF82090174440
:1046800091445346A4E507EE900AB1EE0C5BB8EEF8
:10469000E77BA6EE075B15EE902A51EC150BA2F115
:1046A000507141EC150BB1EE047B36EE477BB4EE56
:1046B000C57BF1EE10FA00F34081B1EE455BB4EE3C
:1046C000C57BF1EE10FA7FF512AD4FF0000A5646A9
:1046D0002CE5049B009A01330493312313703BE6CD
:1046E00029465246204600F049FF0546B1E500F054
:1046F0000F81049B4C495A4202F00F0001EBC001AC
:1047000091ED006B121128EE066B00F03F81B0EEC8
:10471000467B464900260220D30705D591ED005B74
:104720000130012627EE057B521001F10801F3D17B
:10473000002E06FE076B2AE4029B002B7FF447AE97
:10474000DDE90201C1F31302002A40F02981384A51
:104750000A40002A00F0F580012309F10109013720
:104760000A9385E5002A12DD29460122204601939D
:1047700000F064FF5146054600F0D8FF0028019B79
:1047800040F3E580392B00F0CE800BF13103B946C0
:1047900009F8013B049B0133374604934646DBE5A9
:1047A00038EE088BB4EEC68BF1EE10FA0ADCB4EEEC
:1047B000468BF1EE10FA7FF4EEAC17EE103AD80704
:1047C0007FF5E9AC009A69E47168204600F0CCFC02
:1047D0000746002800F0E780336902339A0006F1AB
:1047E0000C010C30FCF766F939460122204600F036
:1047F00025FF804618E62946204600F0BFFE054604
:1048000027E5A9EB0B020892E2E4392B00F08B803C
:10481000B9460133BCE7049A013237460492464652
:104820007BE500BF1CA603085895030848960308BB
:104830000000F07F644BFDEEC65B03EBC20C1CED89
:10484000023BB8EEE57B36EE477B41EC160B15EEEE
:10485000901A23EE063B00983031012A00F8011B24
:1048600000F09280B2EE044B009B991827EE047B77
:10487000FDEEC76B16EE903A303300F8013B8842EC
:10488000B8EEE65B37EE457BF0D1B6EE006B33EE6B
:10489000065BB4EEC75BF1EE10FA3FF5F9AB36EE0E
:1048A000436BB4EEC76BF1EE10FA7FF720AC89468C
:1048B000013919F8013C302BF9D0731C04935BE5E6
:1048C0000C9ACDF82090C2F1360217449144534619
:1048D0007EE4BBF1000F3FF4D6AE0B9A002A7FF7BF
:1048E00006ACB2EE044B26EE046B013007EE900AE4
:1048F000049BB8EEE75BB1EE0C7BA6EE057B17EEF2
:1049000090CA51EC170B5E1EACF15071FFF75DBB06
:104910000220B0EE486BFFF73ABB049B01330493CF
:104920003123FFF7C2BB049BBB46013304933923F9
:1049300037460BF8013B4646FEE44FF0000A564668
:1049400069E60A9294E4731C0493894614E57FF4A3
:104950001EAFDA077FF51BAF14E7392BE3D0B9F1AF
:10496000000F3FF712AF12E7019B022B3FF73DAE5E
:10497000CDF81080CFE5019B022B3FF736AEDDF876
:104980002CB0CDF8108041E501467EE70220FFF70C
:10499000FEBA0E4B0E4800224FF4D57104F04AFBCC
:1049A000029B0A9315E5094B09483A4640F2EA2171
:1049B00004F040FB074B0093FFF7DDB93FF46EAC0A
:1049C000C0F13C0065E400BF589503082CA603081D
:1049D00040A6030820A60308002100F001B800BF8C
:1049E000FF289DBF024BC05C00F00800002070470C
:1049F000F993030842B110B50B4910461446FCF771
:104A000033FC18B9094810BD0848704707492046CB
:104A1000FCF72AFC0028F5D005492046FCF724FCC9
:104A20000028EFD0002010BD74A60308FCA30308E3
:104A3000809F0308014B93F8280170473804002435
:104A400041B110B50C4620460A49FCF70DFC18B9D7
:104A5000094810BD0848704707492046FCF704FC88
:104A60000028F5D005492046FCF7FEFB0028EFD0D2
:104A7000002010BD74A60308FCA30308809F030850
:104A8000F030704700487047280500240048704700
:104A9000280500242DE9F04F01F10B06162E83B0F6
:104AA000044624D8102900F2BA8000F059FB1026E1
:104AB00018220220B74F3A44A2F1080153688B42F2
:104AC00000F0BA805A68D96822F003021A449D683F
:104AD000E9608D60516841F001012046516003F1A9
:104AE000080500F03FFB284603B0BDE8F08F36F024
:104AF000070600F19480B14200F2918000F030FB93
:104B0000B6F5FC7FC0F09681730A00F08F80042B0D
:104B100000F26B81B30903F1390003F1380CC300D3
:104B20009C4F3B44A3F108055B689D4206D10CE015
:104B3000002980F22B81DB689D4206D05A6822F062
:104B40000302911B0F29F3DD60463D69DFF848C27F
:104B500065457CD06A6822F00302931B0F2B00F39B
:104B60007781002BC7E904CC80F26881B2F5007F21
:104B700080F01681D308796801334FEA521E012272
:104B800002FA0EF20A4357F833E0C5F808E007EBE3
:104B9000C3010839E9607A6047F83350CEF80C5009
:104BA000831001219940914257D8114206D120F03B
:104BB00003004900114200F10400FAD007EBC009DC
:104BC0004D468646D5F80C80454508D119E1002BA5
:104BD00080F22081D8F80C80454500F01281D8F889
:104BE000042022F00302931B0F2BF0DD2046D8E9AE
:104BF000025408EB060146F00106C8F80460EC60B8
:104C0000A56043F00104C7E90411C1E902CC4C607E
:104C100048F8023000F0A6FA08F1080502E00C237B
:104C200023600025284603B0BDE8F08F4FF40073E1
:104C300040204FF03F0C73E7D3689A4208BF023020
:104C40007FF440AF3D69DFF850C1654582D17A6895
:104C50008310012199409142A7D9BD686B6823F068
:104C60000308464503D8A8EB06030F2B7EDCDFF8CC
:104C70002C91D7F80824D9F800300132334405EBE1
:104C8000080A00F02F8103F580530F3323F47F6B64
:104C90002BF00F0B5946204610F022FB411C024618
:104CA00000F0EF80824500F2EA80D9F80410594400
:104CB000C9F804100B4600F04B81D7F808140131F5
:104CC0001BBFA2EB0A0A5344C7F80824C9F80430F2
:104CD00012F0070300F01281C3F108010A44C3F582
:104CE000805193440831A1EB0B01C1F30B0A5146EB
:104CF00020460192009310F0F3FA421CDDE90032E5
:104D000000F04B81831A03EB0A0BD9F80400BA6058
:104D10004BF001030AEB0001BD425360C9F80410D7
:104D200000F02281B8F10F0F40F220816B68A8F1EA
:104D30000C0020F0070003F0010303436B604FF009
:104D4000050C2B180F28C3E901CC00F22D81536804
:104D50001546D9F82C208A42D9F8302038BFC9F836
:104D60002C108A4238BFC9F830108CE0AA1943F0E1
:104D7000010346F001066E602046BA60536000F001
:104D8000F1F90835284603B0BDE8F08FD9681A4418
:104D90009DE600BFA4050024AC050024A00A002461
:104DA000B2F5206F4FEA522363D3142B00F2B88080
:104DB00003F15C01C9005B3307EB010E7958AEF1DA
:104DC000080E8E4500F091804B6823F00303934258
:104DD00002D989688E45F7D1D1F80CE07A68C5E927
:104DE000021ECEF80850CD60DAE6142B59D9542BA8
:104DF00000F29E80330B03F16F0003F16E0CC300D1
:104E00008EE60EF1010E1EF0030F05F108057FF48A
:104E1000D9AE51E0424445465368D8F80C1043F0EF
:104E20000103536055F8083F2046D9608B6000F0BD
:104E300099F9F7E6F00806F108023BE62A44204615
:104E4000536843F001035360083500F08BF9E9E63D
:104E5000A919204646F0010643F001046E60C7E937
:104E60000411C1E902CC4C60AB5000F07BF908356D
:104E7000D8E6930903F13901C90038339CE7BD42F4
:104E800060D0BD686B6823F0030B5E45ABEB060397
:104E900002D80F2B3FF76AAF204600F063F90025D8
:104EA000C0E603F15C0003F15B0CC30038E659F87F
:104EB00008394B4540F0968010F0030F00F1FF30A9
:104EC000F5D17B6823EA01037B60490099423FF6F4
:104ED000C4AE19B9C1E649000EF1040E1942FAD068
:104EE00070466BE603F1100BD4E69A104FF0010800
:104EF0007B6808FA02F21A437A6070E702EB0B0152
:104F00004942C1F30B0A514620460193009210F02A
:104F1000E7F9431CDDE900237FF4F4AE9A46F4E69A
:104F2000542B26D8130B03F16F01C9006E3343E7EE
:104F3000B3F5AA7F26D8F30B03F1780003F1770CC1
:104F4000C300EDE5D9F804305B44C9F80430B4E699
:104F5000CAF30B0000287FF4B0AEBD6808EB0B036A
:104F600043F001036B60F4E61546F2E6012353605B
:104F700092E7B3F5AA7F21D8D30B03F17801C900DA
:104F8000773319E740F25452934221D8B30C03F11E
:104F90007D0003F17C0CC300C2E5083B9B44ABEBF6
:104FA000020B4FF0000AB0E605F10801204604F0BC
:104FB000EBFABD68D9F804106B68CAE640F25451A8
:104FC0008B420BD8930C03F17D01C9007C33F3E6CF
:104FD0004FF47E737F204FF07E0CA1E54FF47E717D
:104FE0007E23E9E67B6870E770B582B00546069CD3
:104FF00042B10C4E0094D6F8E460B047431C0BD08D
:1050000002B070BD074B0094D3F8E4601146012351
:10501000054AB047431CF3D100228A2322602B604B
:1050200002B070BD38040024809F030870B51C4690
:10503000104B82B01D6861B113460A4601460E4806
:105040000094D0F8E4602846B047431C0BD002B06F
:1050500070BD094B0094D3F8E460084A0123284648
:10506000B047431CF3D100228A2322602B6002B098
:1050700070BD00BF0800002438040024809F03088E
:1050800010B4034CD4F8E440A4465DF8044B6047E8
:105090003804002482B049B15AB16BB113780B6067
:1050A0001278101E18BF012002B0704701A9002A13
:1050B000F3D1104602B070476FF00100F4E700BF73
:1050C00001F0FF01102A2BDB10F0070F08D010F8B9
:1050D000013B013A8B422DD010F0070F42B3F6D1BD
:1050E000F0B441EA012141EA014122F007047FF0D6
:1050F00000070023F0E80256083C85EA010586EA2D
:10510000010685FA47F5A3FA87F586FA47F6A5FA68
:1051100087F68EB9EED1F0BC01F0FF0102F0070274
:1051200032B110F8013B013A83EA010313B1F8D11F
:105130000020704701387047002D06BF3546033800
:10514000073815F0010F07D1013015F4807F02BF39
:10515000013015F4C03F0130F0BC0138704700BF8A
:10516000704700BF704700BFC36C70B505460C4662
:105170004BB153F8240080B1026843F82420002387
:10518000C0E9033370BD2122042103F079FF0346F7
:10519000E8640028EDD1002070BD012101FA04F679
:1051A000721D9200284603F06BFF0028F3D0C0E97F
:1051B0000146E4E731B1C36C4A6853F82200086045
:1051C00043F82210704700BFF0B50C69064683B063
:1051D0000D4601F1140E0020DEF800101FFA81FCCC
:1051E00002FB0C334FEA134C090C02FB01CC0130DB
:1051F0009BB203EB0C4384424EF8043B4FEA1C4342
:10520000EADC3BB1AA68A24207DD05EB8402013467
:1052100053612C61284603B0F0BD696801930131E8
:105220003046FFF7A1FF019B0746B8B12A690193F9
:10523000023205F10C0192000C30FBF73BFCF26CE2
:105240006968019B52F82100286042F821503D46D0
:1052500005EB8402013453612C61DBE7024B034808
:105260003A46B52103F0E6FE2CA6030880A6030803
:105270002DE9F8430C4628491F46164603F108025B
:1052800081FB0231092F4FEAE2730546C3EB61034C
:1052900039DD4FF0010C00214FEA4C0C634501F160
:1052A0000101F9DC2846FFF75FFF014668B3089B60
:1052B0004361092E4FF00103036112DC0A34092611
:1052C000B7420BDDBE1B264414F8013B0A22303BDB
:1052D0002846FFF779FFA6420146F5D10846BDE80A
:1052E000F88304F10909C846344418F8013B0A223E
:1052F000303B2846FFF768FFA0450146F5D1A6F1EF
:1053000008044C44DCE70021CCE70A46034B044880
:10531000CE2103F08FFE00BF398EE3382CA60308A0
:1053200080A60308030C1B04D3B90004102310F05B
:105330007F4F04BF0002083310F0704F04BF00011C
:10534000043310F0404F04BF80000233002805DB17
:1053500010F0804F03F1010308BF20231846704767
:105360000023E4E7036813F00702014607D0DA07D9
:105370001FD4980721D55B080B600120704798B2B5
:10538000A0B11046DAB20AB908301B0A1A0704BFE6
:105390001B0904309A0704BF9B080230DA0703D4C4
:1053A0005B0800F1010006D00B6070471B0C102059
:1053B000E8E700207047202070479B080B60022020
:1053C000704700BF38B5C36C04460D464BB15868F2
:1053D000B0B102685A6000220123C0E90435C260FE
:1053E00038BD2122042103F04BFE0346E06400286F
:1053F000EDD1094B094800224FF4A07103F01AFEC9
:105400001C220121204603F03BFE0028F1D001229E
:105410000223C0E90123DEE72CA6030880A60308C7
:105420002DE9F04F0E691569AE4285B088461446E5
:1054300005DB2A46234635460C4616469846A368A1
:105440006168AF19BB42B8BF0131FFF78DFE019013
:10545000002800F08780019B03F1140909EB870AFB
:10546000D14505D24B46002243F8042B9A45FBD880
:1054700008F1140808EB860B04F11403D8451A460A
:1054800003EB85055FD22B1B153B23F0030304338D
:105490001534A54238BF0423CDE902A7AC461F4608
:1054A000924605E0000C29D1C34509F1040948D909
:1054B00058F8040B85B2002DF4D056464C46002314
:1054C00056F8040B216882B21FFA81FE05FB02EE3A
:1054D000000C0A0C734405FB002202EB13429BB242
:1054E00043EA0243B44544F8043B4FEA1243E7D889
:1054F00049F8073058F8040C000CD5D0D9F8003022
:10550000544619464D4600222688090C00FB061118
:105510000A449BB243EA024345F8043B54F8046B47
:105520002968360C8BB200FB063303EB1243A4450B
:105530004FEA1342E8D8C34549F8073009F1040996
:10554000B6D8DDE902A7002F02DC05E0013F03D059
:105550005AF8043D002BF9D0019B18461F6105B095
:10556000BDE8F08F034B0448019A40F25D1103F04F
:1055700061FD00BF2CA6030880A6030812F00303F8
:105580002DE9F0411446064632D10D46A41020D034
:10559000D6F84880B8F1000F33D0E3074FF000078A
:1055A00007D4641015D0D8F80000A8B18046E307EE
:1055B000F7D5424629463046FFF732FFB5B1696854
:1055C000F36C641053F821202A6043F821500546FB
:1055D000E9D12846BDE8F081424641463046FFF712
:1055E0001FFFC8F8000007608046E0E70546D8E7DF
:1055F000013B0F4A52F823200023FFF7E5FD054643
:10560000C4E701213046FFF7AFFD804640B10123DA
:1056100040F27122C0E904320023B0640360BCE7A9
:10562000044B054842464FF4A07103F003FD00BF50
:10563000489503082CA6030880A603082DE9F04727
:105640000C4690462669A368496806EB6216751CED
:105650009D4207464FEA621904DD5B009D4201F15D
:105660000101FADC3846FFF77FFD8446002851D05F
:10567000B9F1000F00F114000EDD09F105024FEA47
:10568000820E03460CEB8202002143F8041B934276
:10569000FBD1AEF114031844216904F1140318F08E
:1056A0001F0803EB81012DD0C8F1200986464FF079
:1056B000000A1A6802FA08F242EA0A024EF8042BBB
:1056C00053F8042B994222FA09FAF2D80B1B153B26
:1056D00023F00303043304F11502914238BF04237D
:1056E000BAF1000F18BF2E4640F803A0FB6C6268A9
:1056F000CCF8106053F822102160604643F8224035
:10570000BDE8F087043853F8042B40F8042F994281
:10571000F9D8EBE7034B0448624640F2D91103F095
:1057200089FC00BF2CA6030880A603080B698446E9
:105730000069C01A16D10CF1140C14310CEB830261
:1057400010B401EB830301E0944508D252F8044DF4
:1057500053F8041D8C42F7D005D24FF0FF305DF8AE
:10576000044B7047704701205DF8044B704700BF41
:105770002DE9F84F0F691369FF1A002F0E46904666
:105780007AD101F11405143202EB830205EB830395
:1057900001E09D4273D253F8041D52F8044DA1421A
:1057A000F7D064D37168FFF7DFFC8146002872D020
:1057B0003569D8F81020C76008F1140E06F11400FE
:1057C00009F1140A06F1100C0EEB820200EB8507BA
:1057D000564600215EF8044B5CF804BFA3B211FAF0
:1057E0008BF1CB1A210CC1EB1B4101EB23419BB286
:1057F00043EA0143724546F8043B4FEA2141E9D8A8
:10580000A2EB0804153C08F11508424524F00306F4
:1058100006F1040638BF0426304424F0030238BFE2
:10582000002287425244B24416D95646044654F8E0
:10583000043B11FA83F10A1402EB134289B241EAE4
:105840000243A74246F8043B4FEA2241EFD87A1EB2
:10585000101A20F00302524423B952F8043D013DCE
:10586000002BFAD0C9F810504846BDE8F88F3346EF
:1058700001274646984695E7F9DB002792E7002185
:10588000FFF772FC814668B101220023C9E90423B5
:105890004846BDE8F88F074B07484A464FF4107159
:1058A00003F0C8FB034B04484A4640F2322103F0A0
:1058B000C1FB00BF2CA6030880A6030882B08DEDB3
:1058C000000B154B019A1340A3F15073002B05DD1B
:1058D0000020194641EC100B02B070475B42B3F157
:1058E000A07F4FEA235208DA4FF40023002043FA46
:1058F00002F141EC100B02B07047143A1E2ADABFD5
:105900004FF0004323FA02F201220021104641EC3D
:10591000100B02B0704700BF0000F07FF8B50469BB
:1059200000F1140606EB8404271F54F8045C284693
:10593000FFF7F8FCC0F120030A280B6031DDBE42FE
:105940001BD20B3854F8081C23D0C0F1200C854022
:1059500021FA0CF72F43A4F1080547F07F53AE421C
:1059600043F4401336D2814054F80C0C20FA0CF06A
:105970000843024643EC102BF8BD0B3808D005FA5B
:1059800000F040F07F53002043F440130246F1E75B
:10599000014645F07F5343F440130A4643EC102B75
:1059A000F8BDC0F10B0C25FA0CF1BE4241F07F535B
:1059B00038BF54F8081C00F1150034BF21FA0CF16F
:1059C000002105FA00F043F4401340EA010243ECE1
:1059D000102BF8BD01FA00F00246CBE72DE9F043A9
:1059E000884683B0012157EC106B1546FFF7BCFBCE
:1059F000044600284FD0C7F30A59C7F31303B9F17F
:105A0000000F01D043F48013002E019324D0684688
:105A10000096FFF7A7FC002839D0DDE90013C0F19C
:105A2000200203FA02F20A43C34062610193002B91
:105A300014BF02220122A3612261B9F1000F16D026
:105A4000A9F233430344C0F13500C8F800302860A0
:105A5000204603B0BDE8F08301A8FFF783FC019B5B
:105A60006361012220302261B9F1000FE8D104EB1B
:105A70008203A0F23240C8F800001869FFF752FC18
:105A8000C0EB42102860204603B0BDE8F083009BC5
:105A90006361019BCBE7034B0348224640F20A3186
:105AA00003F0C8FA2CA6030880A60308F0B583B05B
:105AB0000E4669460746FFF731FF01A9304655EC0F
:105AC000104BB0EE407BFFF729FF3B693169591A53
:105AD000DDE90023D31A03EB4113002B09DD17EE98
:105AE000902A02EB035545EC174B87EE000B03B0F1
